:020000040800F2
:10000000A01A00200501000843300008832E0008D4
:1000100041300008710A0008C538000800000000DF
:100020000000000000000000000000001533000880
:10003000B70A000800000000C93100084134000878
:100040001F0100081F0100081F0100081F01000810
:100050001F0100081F0100081F0100081F01000800
:100060001F0100081F0100081F0100081F010008F0
:100070001F0100081F0100081F010008750A000881
:10008000810A00081F0100081F0100081F01000865
:100090001F0100081F0100081F0100081F010008C0
:1000A0001F0100081F0100081F0100081F010008B0
:1000B0001F0100081F0100081F0100081F010008A0
:1000C0001F0100081F0100081F0100081F01000890
:1000D0001F010008AD380008B93800081F010008EA
:1000E000B51200081F0100081F010008DFF810D03A
:1000F00000F030F90048004741400008AFF30080AD
:10010000A01A00200648804706480047FEE7FEE7A1
:10011000FEE7FEE7FEE7FEE7FEE7FEE7FEE7FEE7B7
:10012000A3340008ED000008202A04DB203A21FA5D
:1001300002F00021704721FA02F3D040C2F1200200
:10014000914008431946704740EA01039B0703D0DA
:1001500009E008C9121F08C0042AFAD203E011F806
:10016000013B00F8013B521EF9D27047D2B201E0C8
:1001700000F8012B491EFBD270470022F6E710B5AC
:1001800013460A4604461946FFF7F0FF204610BD05
:1001900030B505462A460B4612F8010B13F8014B01
:1001A00008B1A042F8D01CB1002802D06D1CF1E7C4
:1001B000284630BDCAB2401E10F8011F8A4202D044
:1001C0000029F9D100207047421C10F8011B0029BA
:1001D000FBD1801A70472DE9F05F93460F468046A9
:1001E0000446002603F0D0FCD0F80090824614F8B4
:1001F000015B2DB100F05AF80068405DC007F6D1F0
:100200002B2D02D02D2D1AD0641E0021CAF800100B
:100210005A463946204600F04DF8014627B1386865
:10022000A04201D1C7F80080DAF80000022809D006
:10023000CAF80090700505D54842BDE8F09F46F425
:100240008066E2E70846F8E72DE9F05F0546002002
:1002500092469B4688460646814640241BE0284637
:10026000414647462246FFF75FFF53465A46C01AAB
:10027000914110D311461846224600F07DF82D1A00
:1002800067EB01084F4622460120002100F074F878
:1002900017EB00094E41201EA4F10104DFDC4846A3
:1002A00031462A464346BDE8F09F000000487047AB
:1002B000CC4300082DE9F05F824600780027154600
:1002C0008B460AF10104B946302801D09DB113E0F4
:1002D00014F8010B0127782803D0582801D045B124
:1002E0000AE00DB1102D07D10027102514F8010BDD
:1002F00002E0082500E00A250026B0460EE005FBD6
:10030000080005FB06F1012701EB10461FFA80F8F3
:10031000B6F5803F00D3B94614F8010B294600F02A
:100320003AF80028EBDABBF1000F05D00FB1641EDC
:1003300000E05446CBF80040B9F1000F06D003F0BE
:1003400023FC02210160C81EBDE8F09F48EA064078
:10035000FAE70000064C074D06E0E06840F00103B4
:1003600094E8070098471034AC42F6D3FFF7C2FE7A
:10037000D0430008F0430008202A04DB203A00FAAA
:1003800002F1002070479140C2F1200320FA03F3EC
:100390001943904070473A2800D2303820F02002AC
:1003A000412A01D3A2F13700884201D34FF0FF3038
:1003B0007047000000B585B014212B48FFF7DDFE23
:1003C000042202A9002000F051F8082269461046D4
:1003D00000F04CF8042203A9102000F047F8042292
:1003E00004A9142000F042F8BDF808009DF80A1096
:1003F00040BA000440EA01219DF80B0001431A486D
:100400000160BDF800109DF8022049BA090441EAD4
:1004100002219DF8032011434160BDF804109DF8AE
:10042000062049BA090441EA02219DF80720114338
:100430008160BDF80C109DF80E2049BA090441EA0C
:1004400002219DF80F2011430161BDF810109DF8A5
:10045000122049BA090441EA02219DF813201143F0
:10046000C16005B000BD0000280000202DE9F0416A
:100470001446074620440E46B0F5807F02D903207B
:10048000BDE8F081A12502F0A7FFA02002F090FFB7
:1004900002F05AFF68B9384602F08AFF02F054FFB2
:1004A00038B902F099FF284602F082FF02F04CFFB3
:1004B00010B102F0A0FFE2E70025671E0DE000BFCB
:1004C00002F051FF3070BD4201D1012000E0002058
:1004D00002F063FF6D1CEDB2761CA542F0D302F072
:1004E0008AFF0220CCE7000070B542F2107400BF12
:1004F00002F072FFA02002F05BFF02F025FF05462C
:1005000002F079FF641EA4B22DB1002CF0D102F0EC
:1005100072FF052070BD02F06EFF002CF9D00420A0
:1005200070BD70B50D460646A02402F055FF20466A
:1005300002F03EFF02F008FF58B9304602F038FFE3
:1005400002F002FF28B9284602F032FF02F0FCFE5A
:1005500018B102F050FF012070BD02F04CFFFFF710
:10056000C3FF002070BD000030B5374885B002AD34
:1005700001680A0E8DF808200A0C8DF809200A0A75
:100580008DF80A208DF80B1041680A0E8DF80020B6
:100590000A0C8DF801200A0A8DF802208DF803104C
:1005A00081680A0E8DF804200A0C8DF805200A0ACD
:1005B0008DF806208DF8071001690A0E8DF80C20C1
:1005C0000A0C8DF80D200A0A8DF80E208DF80F10F8
:1005D000C068010E8DF81010010C8DF81110010A81
:1005E0008DF812108DF8130000242046295DFFF7C6
:1005F00098FF641CE4B2042CF7D300246D4604F188
:100600000800295DC0B2FFF78CFF641CE4B2082C1F
:10061000F5D3002403AD04F11000295DC0B2FFF74B
:1006200080FF641CE4B2042CF5D3002404AD04F173
:100630001400295DC0B2FFF774FF641CE4B2042CFF
:10064000F5D305B030BD00002800002070B5044689
:10065000642004FB00F109A003F050FA104D05E0FE
:10066000642001F09FF82878772804D02046641E83
:10067000A4B2F5D270BD012070BD00004B65792099
:100680007720746F20456E74657220436C69204D2D
:100690006F646520696E202564206D73200D0A004B
:1006A0003C0000202DE9F041514E0446514D306888
:1006B0000F4628BB207831280AD0322812D03328A0
:1006C00021D034281FD035281DD0372819D01AE062
:1006D000012F18D12821182000F07CFE46A003F03D
:1006E0000DFA10E0012F0ED14AA003F007FA002006
:1006F000C5F80404316841F006013160C5F808040A
:1007000001E0012F24D0316848076ED520780128F8
:1007100023D0042869D1012F67D1D5F808044107F7
:1007200008D041078A0D4549C00801EB80203149B6
:1007300000F072FE306820F00400306040A003F04A
:10074000DDF94FF4FA7000BF01F02CF803F00AFA5B
:100750003CA003F0D3F96420F6E7852F45D121F0C2
:10076000020030606078A1780844C04310F0FF0FA9
:1007700001D038A015E08021E01C03F0A1F9A5F814
:100780000C0494F8841094F8832001EB022189B2C0
:100790008142EED1D5F808046178C2B2914204D109
:1007A00027A0BDE8F04103F0A9B9401CC2B29142B4
:1007B000DFD1C5F80804401E00F0070005EBC010AB
:1007C0008022E11CFFF7C0FC1DA003F097F9D5F8CB
:1007D0000804410709D1BDE8F0411F49C00801EBF9
:1007E00080204A14034900F017BEBDE8F0810000E4
:1007F000040000209C080020466C61736820415072
:100800005020E58CBAE5B7B2E693A6E999A4202179
:100810000D0A0000E9809AE8BF87586D6F64656D26
:10082000E69BB4E696B062696EE69687E4BBB6E5F1
:1008300088B041505020210D0A00000000600008DF
:1008400006000000E9878DE590AFE4B8AD2E2E2EAE
:100850000D0A000015000000005C000810B50EA095
:1008600003F04CF915A003F049F919A003F046F97B
:1008700021A003F043F927A003F040F92CA003F0D6
:100880003DF936A003F03AF940A003F037F9BDE88E
:10089000104001A003F032B92D2D2D2D2D2D2D2D21
:1008A0002D2D2D436C69204D6F6465202D2D2D2D30
:1008B0002D2D2D2D2D2D2D0D0A0000005B315D20DD
:1008C000E693A6E999A441E58CBA200D0A00000040
:1008D0005B325D20E4B8B2E58FA3494150E4B88BA8
:1008E000E8BDBDE7A88BE5BA8FE588B02041E58C6F
:1008F000BA200D0A000000005B335D20E8AEBEE7C1
:10090000BDAE4F5441E78988E69CACE58FB7200D1A
:100910000A0000005B345D20E69FA5E8AFA24F54BB
:1009200041E78988E69CACE58FB7200D0A000000FE
:100930005B355D20E5A496E983A8464C415348E425
:10094000B8BBE7A88BE5BA8FE4B88BE8BDBDE588F6
:10095000B041E58CBA200D0A000000005B365D2036
:10096000E5A496E983A8464C415348E5A487E4BB37
:10097000BDE7A88BE5BA8FE4B88BE8BDBDE588B0CC
:1009800041E58CBA20200D0A000000005B375D2095
:10099000E9878DE590AF20200D0A000010B51E20DC
:1009A000FFF754FE18B1BDE81040FFF757BF0C48E1
:1009B00001680C4881420CD10BA003F09FF80E484F
:1009C000016841F0010101600C49002081F8000438
:1009D00010BD0BA003F092F8BDE8104000F018B86D
:1009E0002800002044332211757064617461212055
:1009F000253038780D0A0000040000209C080020F3
:100A0000676F204150502120253038780D0A0000B2
:100A100070B51048046845686FF00050204444F6F3
:100A2000FE71884210D272B601F0C6F900F0AAFE3B
:100A30004FF0E021002008614861886184F3088854
:100A4000AC46BDE870406047BDE8704002A003F0CE
:100A500055B8000000600008E8B7B3E8BDAC4150ED
:100A600050E58CBAE5A4B1E8B4A5EFBC810D0A004D
:100A7000FEE70000014800F075BD0000F8110020FD
:100A8000014800F06FBD00003C12002030B590F826
:100A900040500124AC40C56B6C60046863604368DF
:100AA000102B036803D099600068C26030BD9A6063
:100AB0000068C16030BD704718B1012805D0002022
:100AC0007047C82203A104A002E0C82201A104A02B
:100AD00000F050BB4F4B0000415445300D0A000060
:100AE000415445310D0A0000F0B589B007460E4665
:100AF0000A461DA1684603F011F800F047F8684661
:100B0000FFF762FB82B2642369461B4802F068F972
:100B10001A4D6324287878B13E211948FFF74AFB23
:100B200050B100F033F84FF47A7332463946124828
:100B300002F056F9C72407E00A2000F033FE641ED5
:100B4000E8D2012009B0F0BD287830B10DA10C48E1
:100B5000FFF71EFB08B10020F4E70A2000F022FE98
:100B6000641EF1D2EDE7000041542B434950534538
:100B70004E443D25750D0A00B011002018000020DC
:100B8000A012002053454E44204F4B0010B54FF4A7
:100B9000806421460848FFF7F0FA084800210170F8
:100BA0004160074801F0CCFE2246BDE810400249F2
:100BB000034801F040BE0000A012002018000020F1
:100BC000B011002000B5A1B00AA30CA20FA1684685
:100BD00002F0A4FF642214A114A000F0CBFA642058
:100BE00000F0E0FDC82210A1684600F0C3FA21B071
:100BF00000BD000038303830000000003139322E9E
:100C00003136382E33312E313933000041542B43E5
:100C1000495053544152543D22544350222C2225D2
:100C200073222C25730D0A004F4B000041542B43B7
:100C30004950434C4F53450D0A00000000B591B098
:100C400006A30AA20DA1684602F068FF40F2DC523A
:100C500010A1684600F08EFA11B000BD646A6831D8
:100C6000383835303333343433350000E4BFA1E550
:100C70008FB7E4B88DE5A5BD0000000041542B43BB
:100C8000574A41503D222573222C222573220D0AFA
:100C9000000000005749464920474F542049500062
:100CA000C822024902A000F065BA00003012000814
:100CB00041542B434950434C4F53450D0A0000000B
:100CC00070B5FFF77FFF18B131A002F017FF40E0C9
:100CD000344800F0A1F908B133A036E031480021D2
:100CE0000C38D0E90123344802F056FAC82133A069
:100CF00000F0BAFA08B133A027E0C82236A13AA022
:100D000000F038FA00BB3EA14148FFF741FA044623
:100D10000A2200210D30FFF75EFA05462C212046FD
:100D2000FFF748FA401C44193AA1FFF731FA011DB8
:100D3000621A214802F0A0F91F4C20E0C82226A127
:100D400029A000F017FA30B134A002F0D7FEFFF767
:100D5000A7FF002070BD2AA12D48FFF719FA05460C
:100D60000A2200210D30FFF736FA06462C212846CC
:100D7000FFF720FA411C32460F4802F07DF9D4E912
:100D800001018142DAD3BDE870400B4802F0AEB9F0
:100D900074637020636F6E6E656374206661696C46
:100DA0000D0A0000B80C0020687474702067657428
:100DB000206661696C0D0A00F80C00202B49504434
:100DC000000000006E6F2064617461206E6F7469B2
:100DD00066790D0A000000002B43495052454356E6
:100DE000444154410000000041542B4349505245B6
:100DF0004356444154413D3531320D0A0000000054
:100E00002B43495052454356444154413A00000057
:100E1000A01200200D0A0D0A000000007265637622
:100E200064617461206661696C0D0A0070B50646E4
:100E300000244FF4FA75304600F01CF8FF280BD15F
:100E4000611C06A002F05AFE284600F0ABFC641CB0
:100E5000E4B2032CEFD3002070BD0000676574205E
:100E60006D616E6966657374207265747279202590
:100E7000640D0A0038B5044600F0E4F908B122A078
:100E800003E0FFF79FFE18B123A002F037FE0FE04A
:100E900026A000F0C1F808B129A005E0C8212CA0C7
:100EA00000F0E2F930B12CA002F028FEFFF7F8FEC6
:100EB000FF2038BD4FF496722CA130A000F05AF9F3
:100EC00008B134A0F0E7642000F06CFC21463548FE
:100ED00000F0EAF808B134A0D7E704F10C00009064
:100EE00094E80E0036A002F009FE3F48226801692E
:100EF0008A4204D93DA002F001FE012038BD41A084
:100F000002F0FCFD002038BD726563766D6F64658C
:100F1000206661696C0D0A0074637020636F6E6EE9
:100F2000656374206661696C0D0A00002F6F74613F
:100F30002F6D616E69666573742E6A736F6E000043
:100F40006874747020676574206661696C0D0A00AE
:100F50002B495044000000006E6F206461746120D2
:100F60006E6F746966790D0A000000002B434950CA
:100F700052454356444154410000000041542B4324
:100F8000495052454356444154413D3531320D0A92
:100F900000000000726563766461746120666169B7
:100FA0006C0D0A00A01200207061727365206D61E3
:100FB0006E6966657374206661696C0D0A000000D5
:100FC000736572766572207665723A25752073694D
:100FD0007A653A2575206372633A25303858207552
:100FE000726C3A25730D0A00280000206E65656456
:100FF000207570646174653A202575202D3E20258A
:10100000750D0A00616C7265616479206C617465AC
:1010100073740D0A0000000000B5A9B006A10246D5
:10102000009107A30AA101A802F078FD81B201A8EE
:10103000FFF75AFD29B000BD3830383000000000FD
:101040003139322E3136382E33312E3139330000DA
:1010500047455420257320485454502F312E310DCC
:101060000A486F73743A2025733A25730D0A436F4B
:101070006E6E656374696F6E3A20636C6F73650D95
:101080000A0D0A0010B50020FFF716FD50B9012027
:1010900000F098F830B900F0C5F818B9FFF7CEFDA8
:1010A000002800D0012010BD70B50C46054621A1D6
:1010B00002F0BAFF00283BD00A220021FFF78BF88C
:1010C000206020A1284602F0AFFF80B30A22002151
:1010D000FFF781F860601DA1284602F0A5FF30B33C
:1010E0002221FFF767F810B310220021401CFFF700
:1010F00072F8A06017A1284602F096FFB8B122212D
:10110000FFF758F898B1401C05462221FFF752F826
:1011100068B1461B402E00D33F263246294604F1D3
:101120000C00FFF711F80020A119087370BDFFE74C
:101130000320FBE776657273696F6E5F636F6465AA
:101140000000000073697A65000000006372633379
:101150003200000075726C004FF4487201A102A0C9
:1011600000F008B84F4B000041542B5253540D0A65
:101170000000000070B514460E460546FFF706FD58
:101180002846FFF721F882B2642329460A4801F075
:1011900027FE0A4D0BE0287830B131460848FEF7AB
:1011A000F7FF08B1002070BD0A2000F0FBFA641EB2
:1011B000F1D2012070BD0000B01100201800002005
:1011C000A0120020012805D0022807D0032809D04A
:1011D00003207047C82206A106A006E0C82204A189
:1011E00008A002E0C82202A10AA0FFF7C3BF0000C6
:1011F0004F4B000041542B43574D4F44453D310D5B
:101200000A00000041542B43574D4F44453D320DD9
:101210000A00000041542B43574D4F44453D330DC8
:101220000A000000C82202A102A0FFF7A3BF00002D
:101230004F4B000041542B4349504D55583D300D04
:101240000A000000C822024902A0FFF793BF000075
:101250003012000841542B434950524543564D4FDC
:1012600044453D310D0A000070B50C46054609E0C5
:1012700029460648FEF78CFF08B1002070BD0A2001
:1012800000F090FA641EF3D2012070BDA01200207D
:10129000054906488A68C2604A6842600968016177
:1012A00003490160FFF760B9AC0C00202800002062
:1012B000443322114FF4804000F042BB72B6FEE787
:1012C00006490020C8610648016941F00401016136
:1012D000016941F040010161704700008012002067
:1012E00000200240064A0021D16106490A6942F005
:1012F00002020A614861086940F0400008617047D5
:101300008012002000200240044B0022DA61044ACF
:10131000136943F0010313610180704780120020BC
:101320000020024014480022C168CB06134904D5AE
:10133000CA6942F00202CA611022C3685B0705D580
:10134000CB6943F00103CB6142F00402C369DB07C0
:1013500007D0CB6943F00403CB61C16921F00101DF
:10136000C161A2F58071013901D0C2607047C169C5
:1013700021F00101C161704700200240801200206D
:1013800070B5054600F0E2FB0646114C09E0681C0A
:1013900007D025B100F0DAFB801BA84201D9032059
:1013A00070BDE068C007F2D1E068800601D520205A
:1013B000E060E068C00605D4E069C00702D1E068DB
:1013C000400703D5FFF7AEFF012070BD002070BDC0
:1013D0000020024000B585B000220492182802D3F4
:1013E0004318402B02D9012005B000BD0092012214
:1013F0000192D20602EB8020CDE9020100F082FAD0
:1014000004A9684600F0E0F910B100F031FAEAE70B
:1014100000F02EFA0020E7E72DE9F04105461648D6
:1014200016460F46854205D31449A819884201D8AB
:10143000E80702D00320BDE8F08100F063FA002441
:1014400013E0395D601CB04202D23819407800E0E8
:10145000FF2041EA002229190023012000F012FA9E
:1014600010B100F005FAE5E7A41CB442E9D300F09E
:10147000FFF90220DFE7000000600008000001081B
:1014800010B590F821100022022905D004218163B3
:1014900080F82020012010BD01680B6823F00E03A6
:1014A0000B6001680B6823F001030B6090F840307B
:1014B000C46B012101FA03F3636080F8211080F806
:1014C0002020104610BD000010B590F82110002417
:1014D000022903D00421816301243DE001680A68E8
:1014E00022F00E020A6001680A6822F001020A6016
:1014F0001A4A0168914201D1012121E0174A1432B0
:10150000914201D110211BE0144A2832914201D1AD
:10151000891515E0114A3C32914201D189140FE03E
:101520000E4A5032914202D14FF4803108E00B4A0A
:101530006432914202D14FF4801101E04FF080718A
:10154000064A083A5160012180F82110002180F8F4
:101550002010416B01B18847204610BD08000240B1
:10156000806B70472DE9F05FC16B0C6801680B68F8
:10157000D0F840C0042202FA0CF2494DDFF824A151
:10158000494E4A4FDFF828B1DFF828E122422CD03B
:101590005A072AD50A68920603D40A6822F0040280
:1015A0000A600168A94201D1042219E0514501D124
:1015B000402215E0B14202D14FF4806210E0B942FE
:1015C00002D14FF480420BE0594502D14FF4802202
:1015D00006E0714502D14FF4800201E04FF08062D5
:1015E0002F4908394A60C16A3BE04FF0020808FA07
:1015F0000CF818EA040F4FF000094FF0010235D043
:101600005FEA837832D50B689B0605D40B6823F01C
:101610000A030B6080F821200168A94201D102224F
:1016200019E0514501D1202215E0B14202D14FF419
:10163000007210E0B94202D14FF400520BE059455C
:1016400002D14FF4003206E0714502D14FF400128E
:1016500001E04FF00072124908394A6080F820908A
:10166000816A00291AD0BDE8F05F0847082505FA0D
:101670000CF5254212D01B0710D50B6823F00E0382
:101680000B6090F84010C36B02FA01F1596082635D
:1016900080F8212080F82090016BE2E7BDE8F09F00
:1016A000080002401C00024030000240440002409A
:1016B000580002406C00024030B528B308C81349F6
:1016C00014221944B1FBF2F18900C163104981630E
:1016D000022141771A6843F6F0718A43D0E9001479
:1016E0002143D0E902452C43214304692143446945
:1016F0002143846921431143196000214163012280
:1017000042770177084630BD012030BDF8FFFDBFAC
:101710000000024070B5044690F820000025012822
:101720000CD0012084F8200094F821600020012EC4
:1017300006D084F820000225284670BD022070BD26
:10174000022684F82160A0632068066826F001065E
:1017500006602046FFF79AF9E06A002820680168D1
:1017600002D041F00E0106E021F004010160206882
:10177000016841F00A0101602068016841F001013F
:101780000160D9E7064810B54FF0FF310161002232
:101790000261C160C26000F019FA002010BD0000B3
:1017A0000010024070B5044600F0D0F90546601CF8
:1017B00002D004480078044400F0C8F9401BA0425D
:1017C000FAD370BD080000202DE9F04705462648F1
:1017D0000F460126017E01290FD0012181460176A5
:1017E0002868DFF888804CF25034022808D0A246DE
:1017F0002046FFF7C5FDA8B131E00220BDE8F08723
:101800002046FFF7BDFD08BB0120FFF759FD20462C
:10181000FFF7B6FDD8F81010064621F00401C8F80D
:1018200010101CE04FF0FF303860AC6811E020462B
:10183000FFF758FD5046FFF7A3FDD8F8101006003B
:1018400021F00201C8F8101001D03C6007E004F557
:101850008064D5E9020100EB8120A042E7D8002195
:1018600089F818103046C9E7801200200020024095
:101870000348016941F080010161002070470000C8
:10188000002002402DE9F05F07461C4888460024EE
:10189000017E15461E46012909D0012181460176A7
:1018A0004CF2503A5046FFF76BFD18B122E002208F
:1018B000BDE8F09F012F02D0022F00D00427D346AD
:1018C000DFF83CA0220128463146FEF72DFC81B20C
:1018D00008EB4400FFF718FD5846FFF751FDDAF812
:1018E000102022F00102CAF8102018B9641CE4B2DA
:1018F000BC42E7D3002289F81820D9E780120020E3
:1019000000200240064900200A69120607D5054A50
:101910004A60054A4A600969090600D501207047F6
:101920000020024023016745AB89EFCDB0F5804F21
:1019300002D1024901200870704700000000002019
:10194000044910B50A68024202D00860FFF7EEFFB2
:1019500010BD0000140401402DE9F84FDFF8B891E4
:101960000024A9F1040B23460F2709F1040AABF167
:10197000040EC9E00125A5402A40AA427DD1674E48
:10198000D1F804C0ACEB0608B44532D014DCBCF18D
:10199000030F3AD009DCBCF1000F2AD0BCF1010FD3
:1019A0001CD0BCF1020F31D11DE0BCF1110F17D0DA
:1019B000BCF1120F2AD119E0B8F5881F19D006DC46
:1019C000B8F5803F15D0B8F5801F1FD111E0B8F5EC
:1019D000001F0ED0B8F5041F18D10AE0CB6815E03F
:1019E000CB681B1D12E0CB6808330FE0CB680C33CB
:1019F0000CE08B682BB1012B4FF0080303D045613D
:101A000004E0042302E0056100E00023FF2A01D87E
:101A1000064601E000F104064FEA840501D9A5F16C
:101A20002005D6F8008007FA05FC28EA0C0803FA1E
:101A300005F548EA0508C6F800804D68ED0062D556
:101A4000374DAE6946F00106AE61AD6924F003067C
:101A500005F001050095334D06EB050CDCF8085048
:101A6000A607360F07FA06F825EA0805DFF8B8805A
:101A7000404503D14FF0000817E044E0DFF8AC80A8
:101A8000404502D14FF001080FE0DFF8A480404547
:101A900002D14FF0020808E0DFF89880404502D1FB
:101AA0004FF0030801E04FF0040808FA06F848EA8E
:101AB0000508CCF808804D68D9F80060ED024D4665
:101AC00001D5164300E096432E604D68DAF80060B9
:101AD000AD02554601D5164300E096432E604D6891
:101AE000DBF80060AD035D4601D5164300E0964388
:101AF0002E604D68DEF80060ED03754601D5164393
:101B000000E096432E60641C0D682A46E5407FF491
:101B100031AFBDE8F88F000008040140000011104B
:101B2000001002400000014000080140000C01408C
:101B300000100140001401408068084000D00120DE
:101B400070470AB1016170470904FBE701488068EA
:101B500070470000080000200248816802781144A4
:101B60008160704708000020074810B5016841F007
:101B700010010160032000F077F80F2000F006F854
:101B800000F026F8002010BD0020024070B50D4D79
:101B900004464FF47A712878B1FBF0F00A490968DD
:101BA000B1FBF0F000F033FE48B9102C07D2002250
:101BB0002146501E00F038F800206C6070BD0120F6
:101BC00070BD0000080000201400002070470000D5
:101BD0000C4808B5816941F001018161816901F01A
:101BE00001010091C16941F08051C161C06900F0FB
:101BF000805000900448416821F0E06141F000719C
:101C0000416008BD0010024000000140002809DBCF
:101C100000F01F02012191404009800000F1E02006
:101C2000C0F8001170470000F0B40E4B1B680C4662
:101C3000C3F30223C3F10705042D00D90425191DA0
:101C4000072901D2002300E0DB1E012606FA05F178
:101C5000491E214099409E40761E16403143F0BCFB
:101C600001F070BF0CED00E0064900F007020868C3
:101C70004FF6FF03184040EA0220034A1043086071
:101C8000704700000CED00E00000FA052DE9F04778
:101C90000F46050061D0434E306800F00700B8429F
:101CA00009D2306820F0070038433060306800F017
:101CB0000700B84251D128683B4C810712D5400734
:101CC00003D5606840F4E06060602878000703D5C1
:101CD000606840F4605060606068A96820F0F000BF
:101CE000084360602878C00728D06868012810D0B1
:101CF0002168022810D0890700292EDA616821F0B6
:101D0000030101436160FFF721FF804641F28839FA
:101D10000DE021688903EFE78901EDE7FFF716FF82
:101D2000A0EB0801494502D90320BDE8F0876068AF
:101D3000696800F00C00B0EB810FEFD1306800F063
:101D40000700B8420BD9306820F0070038433060F4
:101D5000306800F00700B84201D00120E5E728789C
:101D6000400705D56068E96820F4E06008436060DA
:101D70002878000706D56068296920F4605040EA99
:101D8000C100606000F0A6F86168084AC1F3031161
:101D9000515CC8400649086006480068FFF7F6FE37
:101DA0000020C2E700200240001002403243000839
:101DB000140000200C0000202DE9F041FFF7C6FEC2
:101DC000304C0546206840F00100206005E000BF6F
:101DD000FFF7BCFE401B022843D820688007F7D5D8
:101DE000206820F0F80040F080002060FFF7AEFE91
:101DF00000250646656041F2883704E0FFF7A6FE3D
:101E0000801BB8422DD8606810F00C0FF6D11F4926
:101E10001D4808601E480068FFF7B8FE10B1012099
:101E2000BDE8F081FFF792FE0646206820F0807042
:101E3000206004E0FFF78AFE801B022811D820688A
:101E40008001F7D46560FFF781FE0646206820F424
:101E50001020206007E000BFFFF778FE801B642899
:101E600001D90320DCE720688003F5D4206820F442
:101E700080202060606A40F080706062A560002071
:101E8000CEE700000010024000127A00140000208B
:101E90000C0000200448054900684968044AC1F361
:101EA0000221515CC840704714000020001002401D
:101EB000424300080448054900684968044AC1F3E0
:101EC000C221515CC840704714000020001002403D
:101ED000424300080E4A51680E4801F00C03042BDF
:101EE00011D0082B0FD10C48C1F38343C903C05C48
:101EF0000AD55168084AC1F34041921E515C054A17
:101F00005043B0FBF1F0704704494843704700006C
:101F10000010024000127A002243000800093D0030
:101F20002DE9F84F040070D02078C04DC00749D08B
:101F30006868C0F38100012807D06868C0F3810099
:101F4000022809D16868C00306D52868800339D5FE
:101F500060680028E7D035E06068B0F5803F0BD0BE
:101F600010B1B0F5A02F11D0286820F4803028607F
:101F7000286820F4802002E0286840F4803028603F
:101F8000606890B1FFF7E2FD06460AE0286840F479
:101F900080202860F0E700BFFFF7D8FD801B642891
:101FA00073D828688003F7D50CE0FFF7CFFD06460D
:101FB00005E000BFFFF7CAFD801B6428F0D8286841
:101FC0008003F7D420789A4E80074FF001094FF034
:101FD000000839D5686810F00C0F07D06868C0F3A6
:101FE0008100022809D16868C00306D428688007E8
:101FF00014D52069012808D110E02069B0B1C6F8D5
:102000000090FFF7A3FD074605E00AE1FFF79EFDFC
:10201000C01B0228C4D828688007F7D528686169E2
:1020200020F0F80040EAC10028600DE0C6F800800A
:10203000FFF78CFD074604E0FFF788FDC01B022870
:1020400023D828688007F7D4207800072CD5794852
:10205000A169D9B1C0F80090FFF778FD074604E008
:10206000FFF774FDC01B02280FD8686A8007F7D5F8
:1020700071484FF4FA510068B0FBF1F0009000BFD6
:102080000098411E0091FAD20EE080E0C0F8008076
:10209000FFF75CFD074604E0FFF758FDC01B022870
:1020A00075D8686A8007F7D42078400760D5E8695A
:1020B0000027C00008D4E86940F08050E861E86972
:1020C000012700F0805000905C480168C90513D4D6
:1020D0000168834641F480710160FFF737FD824655
:1020E00006E000BFFFF732FDA0EB0A0064284ED8DF
:1020F000DBF80000C005F5D5E06801280AD008B17A
:10210000052813D0286A20F001002862286A20F0F0
:10211000040002E0286A40F001002862E06841F211
:10212000883B98B1FFF712FD82460BE0286A40F029
:1021300004002862EEE700BFFFF708FDA0EB0A01EC
:1021400059455AD8286A8007F6D50CE0FFF7FEFCFF
:10215000824605E0FFF7FAFCA0EB0A0159454CD88E
:10216000286A8007F6D41FB1E86920F08050E86142
:10217000E06988B36968C1F38101022944D002286B
:10218000C6F8608004D0FFF7E1FC044638E034E094
:10219000FFF7DCFC074604E0FFF7D8FCC01B022871
:1021A0002BD828688001F7D4206AB0F5803F05D18C
:1021B0006868A16820F4003008436860D4E9080129
:1021C0000843696821F4741108436860C6F8609098
:1021D000FFF7BCFC044606E025E000BFFFF7B6FCB5
:1021E000001B022809D828688001F7D51BE000BF32
:1021F000FFF7ACFC001B022802D90320BDE8F88FD2
:1022000028688001F4D40EE00128F7D06868226ABB
:1022100000F48031914204D1616A00F47010884268
:1022200001D00120EAE70020E8E7000000100240AA
:10223000000042428004424214000020007000402E
:1022400070B5040009D0606A002540B12561656160
:10225000A56294F8510040B10CE0012070BD6068A7
:10226000B0F5827FF4D0E561F2E784F85050204663
:1022700000F040F8022084F851002068016821F045
:1022800040010160A088218900F4827001F40441BA
:102290000843A18901F400610843217C01F0020197
:1022A0000843217D01F001010843218B01F40071F5
:1022B0000843217F01F03801084394F8201001F011
:1022C00080010843218D01F4005108432168086012
:1022D000A069042101EA1040216848602068C169B2
:1022E00021F40061C1616565012084F8510000207E
:1022F00070BD000030B585B00024009401940294B4
:10230000039400681449884223D11448816941F438
:1023100080518161816901F480510491816941F0AA
:102320000401816180690E4D00F004000490A0203A
:102330000090022001900320039069462846FFF791
:102340000BFB4020CDE90004694628460294FFF7C4
:1023500003FB05B030BD000000300140001002401A
:10236000000801402DE9F84F044690F851001D4641
:1023700016460F46012838D160684FF00408B0F5C2
:10238000827F01D1A06830B3FFF7E0FB8246002FC7
:1023900075D0002E73D094F85000012825D04FF04E
:1023A000010984F8509084F851804FF00008C4F877
:1023B0005480A763A687E687C4F83080A4F83480E9
:1023C000A4F83680C4F84080C4F84480A068B0F512
:1023D000004F0CD015E084F85180009313460A4654
:1023E000204600F01CF9BDE8F88F0220FBE72068CA
:1023F000016821F0400101602068016821F48041FA
:10240000016020680168490603D4016841F0400179
:102410000160E068C0B134E020688168C90709D074
:10242000007BA16B0870A06B401CA063E08F401E76
:10243000E08709E0FFF78AFBA0EB0A00A84202D37D
:10244000681C01D032E085B3E08F0028E4D11BE0A6
:1024500020688168C90709D0C068A16B0880A06B9B
:10246000801CA063E08F401EE0870AE0FFF76EFB50
:10247000A0EB0A00A84203D3681C02D016E012E0C9
:102480009DB1E08F0028E3D152462946204600F056
:102490009CFE08B12020606584F8519084F850803B
:1024A000606D00289FD001209DE7FFE784F85190E0
:1024B00084F85080032096E72DE9F84F9846164699
:1024C0008A460446FFF742FB814694F851000128F2
:1024D0001ED1BAF1000F73D0002E71D094F85000C5
:1024E000012815D0012784F85070032084F851008A
:1024F00000256565C4F830A0A686E686A563A58795
:10250000E58765642564A068B0F5004F03D00CE052
:102510000220BDE8F88F2068016821F040010160C9
:102520002068016841F48041016020680168490623
:1025300003D4016841F040010160E068B0F5006F2C
:10254000606803D048B3012E27D047E008B1012EC0
:102550001FD1206B21680088C86006E02068816870
:10256000890709D5216B0988C160206B801C206315
:10257000E08E401EE0860CE0FFF7E8FAA0EB0901D0
:10258000414503D3B8F1FF3F03D035E0B8F1000F68
:1025900032D0E08E0028E1D123E0206B2168007862
:1025A000087306E02068816889070AD5216B0978DD
:1025B0000173206B401C2063E08E401EE0860DE01E
:1025C0002BE0FFF7C3FAA0EB0901414503D3B8F1B3
:1025D000FF3F03D010E0B8F1000F0DD0E08E0028CF
:1025E000E0D14A464146204600F01DFE08B12020B9
:1025F0006065A06830B109E084F8517084F85050EB
:10260000032086E72068C1688068009084F85170D4
:1026100004F8505F60680028F3D0012079E72DE9C5
:10262000FF4F81B01D46934604464FF001090E9EB0
:10263000FFF78CFA074694F851006168012806D02C
:10264000B1F5827F3CD1A168C9BB042838D102987A
:10265000002871D0BBF1000FFBD0002DF9D094F809
:10266000500001282CD04FF0010A84F850A094F8B3
:102670005100042802D0052084F851004FF00008D2
:10268000C4F85480C4F838B0E587A587029921635F
:10269000E586A586C4F84080C4F8448020680168B7
:1026A000490603D4016841F040010160E068B0F5DB
:1026B000006F606808D0F0B3012D49D081E0FFE7DA
:1026C000022005B0BDE8F08F08B1012D39D1206B93
:1026D00021680088C860206B801C2063E08E401E4B
:1026E000E0862EE02068816889070FD5E18E69B108
:1026F000B9F1010F0AD1216B0988C160206B801CE0
:102700002063E08E401EE0864FF00009206881685B
:10271000C9070CD0E18F51B1C068A16B0880A06BD4
:10272000801CA063E08F401EE0874FF00109FFF797
:102730000DFAC01B01E00BE067E0B04201D3701C52
:1027400050D1E08E0028CDD1E08F0028CAD13EE0E4
:10275000206B216800780873206B401C2063E08E9A
:10276000401EE0862DE02068816889070FD5E18E44
:1027700069B1B9F1010F0AD1216B09780173206B9E
:10278000401C2063E08E401EE0864FF00009206868
:102790008168C9070CD0E18F51B1C068A16B087086
:1027A000A06B401CA063E08F401EE0874FF0010942
:1027B000FFF7CCF9C01BB04202D3701C01D011E06E
:1027C00086B1E08E0028CED1E08F0028CBD13A46EA
:1027D0003146204600F027FD50B12020606584F886
:1027E000508012E084F851A084F85080032068E7FC
:1027F000A06818B92068C1688068009084F851A06A
:1028000084F85080606D0028F1D0012059E710B5A0
:10281000401EB0F1807F01D3012010BD4FF0E024B5
:1028200060610F21601701F08DF90020A061072081
:102830002061002010BD38B5044690F842002028E1
:1028400001D0022038BD51B14AB1012020630020DF
:102850006063204600F098FF216B012901D0012020
:1028600038BD21680A684968009121680C3151E837
:10287000002F42F0100241E80023002BF5D138BDB3
:1028800070B50C460546006824490026884229D1C7
:10289000234BA3F601011888204480B21880084415
:1028A000596D4860586D08305865D96D884201D11E
:1028B000181D586519881B48C1F50062FF2A07DDFD
:1028C0000844596D08601888C0F5006082B204E0C1
:1028D000596D4FF4006208601E80586D01681248FF
:1028E000FFF7A9FF11492868884216D11048114BFB
:1028F00001220168214401601A7040F2FF329142C6
:1029000000D306600068BDE87040C0F580618AB2FF
:10291000094901440948FFF78EBF70BD00380140E6
:102920003C0800203C0000206811002000440040CA
:102930001C00002018000020A0120020B011002070
:1029400070B5044620680C3050E8001F21F49071E7
:1029500040E80012002AF5D12068143050E8001F2A
:1029600021F0010140E80012002AF5D1206B012876
:1029700009D120680C3050E8001F21F0100140E818
:102980000012002AF5D1206840694FF0000540068A
:1029900015D52068143050E8001F21F0400140E8B0
:1029A0000012002AF5D1E06B48B14563E06BFEF7F9
:1029B00067FD20B1E06BFEF7D3FD202806D0E5854A
:1029C000202084F842002563002070BD1020606440
:1029D000032070BD70470000F8B501680446086820
:1029E000CA684B6910F00F0F4FF0000559D003F083
:1029F000010602F49077374365D0C10705D0D105B1
:102A000003D5616C41F001016164410705D5D90727
:102A100003D0616C41F002016164810705D5D907DB
:102A200003D0616C41F004016164010707D502F035
:102A30002001314303D0616C41F008016164616C95
:102A400000293AD0800604D5900602D5204600F031
:102A5000DDFD20684069616CC0F38010090700D477
:102A600060B3204600F09DFD20684069400621D5F6
:102A70002068143050E8001F21F0400140E80012A7
:102A8000002AF5D1E06BA8B16D494163E06BFEF718
:102A90001BFD002811D0E06B416B01B0BDE8F04098
:102AA000084783060FD593060DD52046BDE8F840AC
:102AB00000F0ACBD2046FFF78DFFF8BD2046FFF7C4
:102AC00089FF6564F8BD266B2023012E7CD1C606E4
:102AD0007AD5D60678D508684868009048694FF0DE
:102AE0000206400640D5E16B086840680004000C0F
:102AF000E8D0A28D8242E5D9E085886920282DD0D2
:102B000020680C3050E8001F21F4807140E800126A
:102B1000002AF5D12068143050E8001F21F001018F
:102B200040E80012002AF5D12068143050E8001F58
:102B300021F0400140E80012002AF5D184F842302B
:102B4000256320680C3050E8001F21F0100140E898
:102B50000012002AF5D1E06BFEF792FC6663A08DAF
:102B6000E18D401A81B22AE0A08DE18D401A81B238
:102B7000E08D0028A6D00029A4D022680C3252E8AB
:102B8000000F20F4907042E80007002FF5D1206874
:102B9000143050E8002F22F0010240E80027002FF7
:102BA000F5D184F84230256320680C3050E8002FBE
:102BB00022F0100240E80023002BF5D16663204686
:102BC000FFF75EFEF8BDFFE705062BD5150629D5F4
:102BD00094F841002128F5D1A068B0F5805F01D1BB
:102BE0002069B0B1206A411C2162216800784860E8
:102BF000E08C401E0004000CE084E3D12068C16832
:102C000021F08001C1602068C16841F04001C160CD
:102C1000D8E7206A0088C0F308004860206A801C5A
:102C20002062E5E74006CDD55006CBD5CA682046E0
:102C300022F04002CA6084F8413000F021F9C1E777
:102C4000A534000870B5040004D094F841000025B4
:102C500010B106E0012070BD84F84050204600F01D
:102C600023F8242084F841002068C16821F4005131
:102C7000C160204600F02CFD2068016921F49041DC
:102C800001612068416921F02A0141612068C16821
:102C900041F40051C1606564202084F8410084F84B
:102CA00042006563002070BDF0B585B0002400943B
:102CB0000194029403940646DFF808C10368424871
:102CC00002220321414D8027634539D1836943F4B2
:102CD00080438361836903F480430493836943F0F1
:102CE000040383618069039100F0040004901002E2
:102CF000CDE9000269462846FEF72EFE2815CDE9EB
:102D00000004694628460294FEF726FE314D3048FD
:102D1000C5E90004C5E902472C6180146C61C5E96E
:102D200006402846FEF7C8FC08B1FEF7C7FAF5636F
:102D30000022012125206E62FEF776FF25203DE06E
:102D4000DFF894C063453BD1C36943F40033C361EA
:102D5000C36903F400330493836943F0040383617C
:102D60008069039100F0040004900420CDE9000282
:102D700069462846FEF7F0FD0820CDE900046946C3
:102D800028460294FEF7E8FD124D114844351430F0
:102D9000C5E90004C5E902472C616C61AC612846B5
:102DA000EC61FEF789FC08B1FEF788FAF5630022B2
:102DB000114626206E62FEF737FF2620FEF726FF1B
:102DC00005B0F0BD0038014000100240000801408D
:102DD00058000240F811002000440040704770473E
:102DE0002DE9F843044690F84100984616460D46F2
:102DF000202802D00220BDE8F88385B17EB10020F2
:102E00006064212084F84100FEF7A0FEA68481467C
:102E1000E684A0682027B0F5805F02D003E001209F
:102E2000E9E7206910B12E4600250EE000260CE0EF
:102E30008021204600F0F0FCA8B9C6B116F8010BBD
:102E400021684860E08C401EE084E08C4B464FF0E7
:102E50000002CDF800800028EAD14FF04001204662
:102E600000F0DAFC40B184F841700320C3E735F884
:102E7000020BC0F30800E3E784F841700020BAE7D2
:102E80007047FEE70D4808B5416941F00101416115
:102E90004069002200F00100009005210F20FEF79C
:102EA000C3FE0F20FEF7B2FE002211461020FEF7EF
:102EB000BBFEBDE808401020FEF7A8BE001002408F
:102EC00070B586B000242D480094019402940394B8
:102ED000816941F010018161816901F01001049163
:102EE000816941F020018161816901F02001049133
:102EF000816941F004018161816901F0040104915B
:102F0000816941F00801816180691D4E00F008006F
:102F10000490002240213046FEF713FE01224FF4B8
:102F200020713046FEF70DFE4FF4804000901548AA
:102F30000125CDE9010569463046FEF70DFD4FF448
:102F40001070CDE90005032569463046CDE90245FC
:102F5000FEF702FD8020009001AA112082E83100D6
:102F600069463046FEF7F8FC002207212820FEF7CC
:102F70005BFE2820FEF74AFE06B070BD001002403E
:102F8000000C014000002110104810B50E490160EE
:102F90004FF48271416000218160C1604FF4007282
:102FA0000161C0E905120822C0E90721416281627E
:102FB0000A21C162FFF744F9002803D0BDE81040A0
:102FC000FEF77CB910BD0000003001401011002058
:102FD0000C4810B50A4901604FF4E131416000210D
:102FE00081600C22C160C0E904128161C161FFF7F8
:102FF00029FE002803D0BDE81040FEF75FB910BDE0
:1030000000380140681100200C4810B50A490160E1
:103010004FF4E1314160002181600C22C160C0E9C0
:1030200004128161C161FFF70DFE002803D0BDE8E5
:103030001040FEF743B910BD00440040B01100201D
:10304000FEE7FEE7F0B500250A4E03680DE04C5D93
:1030500063400024DF0702D086EA530300E05B08E8
:10306000641CE4B2082CF5D36D1C9542EFD30360C9
:10307000F0BD00002083B8ED2DE9F0478A460446F4
:103080008168164640688A19824200D9461A32463B
:10309000514604F11000FFF7D5FFA0680025304429
:1030A00004F116074FF48068A946A06019E000BF3C
:1030B000A08A1AF80520411CA182C255A08A424666
:1030C00090420DD13946206800F082FC10B10120F9
:1030D000BDE8F087206800F580602060A4F81490B7
:1030E0006D1CB542E4D30020F2E7000010B5828ADF
:1030F00004466AB104F11601206800F069FC08B1C9
:10310000002010BDA18A2068084420600020A08211
:10311000D4E90121914201D007A005E02069E268CD
:10312000C1438A4203D00DA000F0E8FCE8E714A0F8
:1031300000F0E4FC012010BD73697A65206D6973AD
:103140006D617463683A20726563762025752C2062
:103150006578706563742025750D0A0063726320BD
:103160006661696C3A20676F7420253038582C20CE
:1031700065787065637420253038580D0A000000AA
:10318000646F776E6C6F6164206F6B2C2063726369
:1031900020253038580D0A0070B5C3600D46016017
:1031A0000021C0E901218182491E02F6FF72160B3F
:1031B0000024016105E000BF05EB043000F0B2FB24
:1031C000641CB442F8D370BD7047F8B5044640683B
:1031D0004FF48273984217D1A0684FF48065B0F520
:1031E000004F01D0A8420FD12068066826F04006A3
:1031F00006606068984207D1A068A84204D1009296
:103200000B460022012103E000920B4600228021A0
:10321000204600F023F8002804D0606D40F0200024
:1032200060650320F8BDF8B515460E460B460092C2
:1032300004460122022100F011F840B93346002271
:1032400080212046009500F009F8002804D0606D28
:1032500040F0200060650320F8BD00002DE9F84330
:103260001E46914688460446089DFEF76FFC401BAB
:10327000351AFEF76BFC074625480068C0F3CB30D3
:10328000684338E0701C37D0FEF760FCC01BA842D2
:1032900003D215B1009860B32CE02068416821F09A
:1032A000E00141606068B0F5827F0BD1A068B0F5A5
:1032B000004F02D0B0F5806F04D12068016821F082
:1032C00040010160A06AB0F5005F09D12068016883
:1032D00021F4005101602068016841F4005101604F
:1032E000012084F85100002084F850000320BDE83C
:1032F000F8830025401E00902068816838EA0100AC
:1033000004D000214945BDD10020F0E70121F9E7B3
:1033100014000020704708B500208DF800009DF8CB
:1033200000000A2803D29DF80000401CF5E708BD04
:1033300010B580210348FEF7FFFB0446FFF7EBFFC3
:10334000204610BD000C014010B5012000F06CF8C3
:10335000012000F05DF8FFF7EBFF0446002000F0CD
:1033600057F8204610BD70B50025012000F05CF82C
:1033700000248026012000F04BF8FFF7D9FF012838
:1033800002D126FA04F00543002000F041F8641C45
:10339000A4B2082CEED3E8B270BD10B500F044F82A
:1033A000012000F035F8BDE81040002000F030B8F2
:1033B00070B500240546802626FA04F0284000F067
:1033C00033F8012000F024F8002000F021F8641CFC
:1033D000E4B2082CF0D370BD10B5012000F024F841
:1033E000012000F015F8002000F01EF8BDE81040A4
:1033F000002000F00DB810B5002000F015F80120F5
:1034000000F006F8BDE81040012000F00DB8000003
:1034100010B5024640210348FEF793FBBDE810407B
:10342000FFF779BF000C014010B502468021034828
:10343000FEF787FBBDE81040FFF76DBF000C0140B1
:10344000FEF78ABB30B58FB028216846FCF795FEA1
:1034500014210AA8FCF791FE01210804CDE900100F
:103460000024029402250491CDE907504FF4E010A6
:1034700009906846FEF754FD08B172B6FEE70F20CA
:10348000CDE90A054FF48060CDE90C4002210AA87D
:103490000E94FEF7FBFB002801D072B6FEE70FB0DA
:1034A00030BD704710B5406A0021C185C184FFF767
:1034B00091FA10BD70B5446A2068406994F84110D3
:1034C000C0F3C0100025212904D118B1E58420469D
:1034D00000F08EF82068406994F84210C0F3801024
:1034E000222904D118B1E585204600F05AF8606C15
:1034F00040F0100060642046FFF76CFA70BD10B514
:103500000146406A096809684FF0000289062ED416
:10351000C28501680C3151E8003F23F4807341E813
:103520000034002CF5D10168143151E8003F23F03C
:10353000010341E80034002CF5D10168143151E851
:10354000003F23F0400341E80034002CF5D1202156
:1035500080F84210016B012909D101680C3151E852
:10356000003F23F0100341E80034002CF5D1426302
:10357000016B012902D0FFF731FC10BD818DFFF7EF
:103580007FF910BD10B5406A01214163016B01292B
:1035900002D0FFF724FC10BD818D4908FFF770F9B8
:1035A00010BD01680C3151E8002F22F4907241E8FF
:1035B0000023002BF5D10168143151E8002F22F0CF
:1035C000010241E80023002BF5D1016B012909D14B
:1035D00001680C3151E8002F22F0100241E800236D
:1035E000002BF5D1202180F84210002101637047A3
:1035F00001680C3151E8002F22F0C00241E800239D
:10360000002BF5D1202180F84110704708B590F8C3
:103610004210222901D0022008BD82684FF4805355
:103620009A4201D1016921B1816A9A421BD04AB103
:103630000AE00268816A5268C2F308020A80816A5D
:10364000891C08E0026972B10268526802F07F02C8
:103650000A70816A491C8162C18D491E0904090CE6
:10366000C18503D01BE002685268F1E70168CA68AF
:1036700022F02002CA600168CA6822F48072CA601F
:1036800001684A6922F001024A61202180F8421053
:1036900000214163026B012A03D0FFF79FFB00204A
:1036A00008BD016301680C3151E8002F22F01002BF
:1036B00041E80023002BF5D101680A68D20602D543
:1036C0000A6849680091818DFFF7DAF8E7E70000A2
:1036D00070B5044600680169E26821F44051114365
:1036E00001612169A0680843616908432168CA68CB
:1036F00041F20C639A430243CA6020684169A2699F
:1037000021F44071114341611E492068884202D171
:10371000FEF7D0FB01E0FEF7BDFB00EBC00101EBC3
:103720000012606864218000B2FBF0F3B3FBF1F398
:103730006FF018067343B2FBF0F5B2FBF0F605EB41
:103740008305322303EB0515B5FBF1F5B6FBF1F666
:1037500005F0F00505EB0615B2FBF0F6B2FBF0F054
:10376000B0FBF1F06FF01802504306EB800003EB62
:103770000010B0FBF1F0216800F00F0028448860D1
:1037800070BD00000038014038B581620446828572
:10379000002013466064222284F84220E56B1B4A15
:1037A000AA62E56B1A4AEA62E56B1A4A2A63E26B7F
:1037B00050630A462168E06B091DFDF7ABFF2068E6
:1037C000016840680090206948B120680C3050E8DA
:1037D000001F41F4807140E80012002AF5D12068F2
:1037E000143050E8001F41F0010140E80012002AA7
:1037F000F5D12068143050E8001F41F0400140E846
:103800000012002AF5D1002038BD0000FF34000866
:1038100085350008B53400082DE9F8439846174669
:103820000D460446089E24E0701C22D0FEF78EF957
:10383000A0EB0800B0421AD8CEB12068C168490791
:1038400017D5802D15D0402D13D00168C943090725
:103850000FD401680025406800902046FFF7A1FEC4
:103860000820606484F840500120BDE8F8830320FC
:10387000FBE72068006835EA000004D00020B84269
:10388000D2D00020F1E70120F9E700000648011F2F
:1038900000F148024865C1E91602A0F60402026080
:1038A0000020088070470000400800200148FFF712
:1038B00093B80000681100200148FFF78DB80000A0
:1038C000B0110020FEE70000F8B50D460021009180
:1038D00003218DF80010010C8DF80110010A8DF8FC
:1038E00002108DF803001446002000F041F84FF05C
:1038F000FF363346042269460948FEF7DDFD30B93C
:103900003346224629460648FEF72CFD08B1012021
:10391000F8BD012000F02CF800F032F80020F8BDCE
:103920001011002008B50021009120218DF8001011
:10393000010C8DF80110010A8DF802108DF80300BA
:1039400000F06EF8002000F013F84FF0FF3304226F
:1039500069460648FEF7B0FD00284FF0010004D18B
:1039600000F006F800F00CF8002008BD101100204F
:1039700002464FF400710148FEF7E3B8000C014025
:103980001CB511A00068019000208DF80000FFF721
:10399000EFFF4FF0FF342346012201A90B48FEF749
:1039A0008BFD08B101201CBD234601226946074852
:1039B000FEF7D8FC18B99DF80000C007F4D101202B
:1039C000FFF7D6FF00201CBD0500000010110020ED
:1039D0002DE9F0410F461446064610F0FF014FF462
:1039E000807818D0C1F58075AC4202D92A46394694
:1039F0000CE0A2B2394600F02DF80EE040468442B9
:103A000000D8204685B22A463946304600F022F8D2
:103A10002E442F44641B002CF0D10020BDE8F0811F
:103A200008B50AA0006800900020FFF7A1FF4FF042
:103A3000FF33012269460648FEF73EFD00284FF09D
:103A4000010002D1FFF794FF002008BD060000002E
:103A500010110020F8B514460D46C2B21119B1F587
:103A6000807F21D80021009102218DF80010010CE7
:103A70008DF80110000A8DF802008DF80320FFF781
:103A8000CFFF0020FFF774FF4FF0FF3633460422CC
:103A900069460A48FEF710FD30B9334622462946EA
:103AA0000648FEF709FD08B10120F8BD0120FFF727
:103AB0005FFFFFF765FF0020F8BD00001011002038
:103AC000F0B50546002041F2210402464FF6FF768C
:103AD00011E0AB5C80EA03200023070403D584EAED
:103AE000400080B201E006EA40005B1CDBB2082B1C
:103AF000F3D3521C92B28A42EBD3F0BD0FB4054B04
:103B000010B503A9044A029800F052F810BC5DF801
:103B100014FB000011400008200000200FB4084BE7
:103B200010B504A902AA039800F042F8044602A9BD
:103B3000002000F068FA204610BC5DF814FB00007D
:103B4000074000080907090E002804DB00F1E02007
:103B500080F80014704700F00F0000F1E02080F8BA
:103B6000141D7047BFF34F8F05480168054A01F4E3
:103B7000E06111430160BFF34F8F00BFFDE700001C
:103B80000CED00E00400FA05004870472400002016
:103B900002E008C8121F08C1002AFAD17047704716
:103BA000002001E001C1121F002AFBD17047000074
:103BB0002DE9FF4F8DB00F460546002606E025286B
:103BC0000BD0DDE90F1290476D1C761C2878002879
:103BD000F5D111B03046BDE8F08F0024A246A146D1
:103BE0000122E94900E0044315F8013F203B02FAB5
:103BF00003F00842F7D128782A2810D06FF02F025E
:103C00002878A0F13001092914D80AEB8A0102EBC7
:103C1000410144F0020400EB010A6D1CF0E701CF02
:103C20005FEA000A03D544F40054CAF1000A44F0E4
:103C300002046D1C28782E2817D115F8010F44F0C6
:103C400004042A280ED06FF02F022878A0F130014A
:103C500009290AD809EB890102EB410100EB0109AE
:103C60006D1CF2E757F8049B6D1C28786C280FD068
:103C700006DC4C2817D068280DD06A2814D104E03F
:103C8000742810D07A280FD10DE044F400140AE013
:103C900044F4801401E044F440146978814202D174
:103CA00004F580146D1C6D1C28786E281ED00CDC69
:103CB000632830D004DC00288BD0582811D19FE035
:103CC000642867D069280CD164E073282DD004DC07
:103CD0006F2872D0702804D194E075286ED07828AF
:103CE0006DD0DDE90F129047761C4BE1C4F3025012
:103CF000022806D0032809D0042801CF09D0066085
:103D000040E101CFF117C0E900613BE101CF06803E
:103D100038E1067036E117F8040B8DF8000000203A
:103D20008DF80100EB46012003E057F804BB4FF08B
:103D3000FF3061074FF0000102D40DE008F10101EE
:103D4000884649450FDA8045F8DB1BF80810002942
:103D5000F4D108E008F1010188468142FADB1BF842
:103D600008100029F6D1DDE90F23AAEB08008146EF
:103D7000214600F031F9304400EB080604E0DDE9AB
:103D80000F121BF8010B9047B8F10108F7D221463A
:103D90004846F2E00A21C4F302524FF0000B0891AA
:103DA000022A04D001CFC117032A09D00AE0FF1D5F
:103DB00027F00707F7E8020108E02CE01EE01FE00B
:103DC00000B2C117042A01D140B2C117021E71F11D
:103DD000000206DA0023D0EB030063EB01012D2281
:103DE00002E0220504D52B228DF82420012203E0D5
:103DF000E20701D02022F7E7904653E00A210BE0CA
:103E0000102109E010214FF0000B44F004044FF0A2
:103E10000809089103E008214FF0000B0891C4F352
:103E20000252022A04D001CF0021032A06D006E064
:103E3000FF1D27F00707F7E8020103E080B2042A1C
:103E400000D1C0B24FF0000822072BD52A78702A83
:103E500007D0DDF820C08CF0100C5CEA0B0C05D00C
:103E60000EE040228DF82420012208E050EA0103F0
:103E700006D030238DF824308DF82520022290467C
:103E8000089B83F0080353EA0B030BD150EA0102AD
:103E900001D1620706D530228DF824204FF00108A9
:103EA000A9F101092A78582A04D038A20B9208AA4D
:103EB0000A920BE03AA2F9E75B46089AFCF7C4F9CC
:103EC0000B9B9B5C0A9A521E0A92137050EA0102E5
:103ED000F2D10A98ADEB000000F1200B600702D58B
:103EE00024F4803401E04FF00109D94502DDA9EB4B
:103EF0000B0000E0002000EB0B0141440890AAEB0E
:103F0000010AE00306D4DDE90F232146504600F004
:103F100063F806444FF0000908E009A911F8090008
:103F2000DDE90F12904709F10109761CC145F4DB68
:103F3000E0030CD5DDE90F232146504600F04CF894
:103F4000064404E0DDE90F1230209047761C089902
:103F5000481E08900029F5DC08E00A980A990078C4
:103F6000491C0A91DDE90F129047761CBBF1000154
:103F7000ABF1010BF1DC21465046DDE90F2300F0E7
:103F800019F806446D1C21E609280100303132334E
:103F90003435363738396162636465660000000085
:103FA000303132333435363738394142434445466F
:103FB000000000002DE9F041044600251E4617468A
:103FC000880404D405E039462020B0476D1C641EE7
:103FD000F9D52846BDE8F0812DE9F04104460025D9
:103FE0001E469046C80301D5302700E020278804EC
:103FF00004D505E041463846B0476D1C641EF9D52E
:104000002846BDE8F0810A68531C0B6010707047A9
:1040100013B54FF0FF33012269460248FEF7E0FE78
:1040200000981CBD6811002010B5FCF7B1F80028FD
:1040300005D03A21FCF7BEF8002800D0401C10BD86
:10404000FDF792FDFFF7FEF9FEF73AFFFEF71AFFC4
:10405000FEF7BEFFFEF798FFFEF7D6FFFFF716FC50
:104060004FF400626E496F48FEF7E5FB4FF480693C
:104070004A466D496D48FEF7DEFBFCF79BF96CA0E4
:10408000FFF73CFDFCF7FEFF01280CD06DA0FFF709
:1040900035FD7148FCF7CAFE40B1FCF711FE28B1AE
:1040A000FDF7F6F802E06DA0FFF728FDFCF776FCBF
:1040B000DFF8BCA16F4E0AF160084FF0000BA8F6C4
:1040C0007407307890B11420FDF76CFB4FF48041F9
:1040D0006948FDF731FD38B9FDF73EF808B167A032
:1040E00000E06AA0FFF70AFD86F800B00A20FDF79D
:1040F00059FB5446D4E9151081420FD081880068DD
:10410000091A491C89B2FCF7CDFAA06D0830A065E8
:10411000E16D884202D15648001DA06530798007C4
:104120000CD5D8F80404642805D95DA0FFF7E6FC97
:104130005846C8F804B4401CC8F804043079C007D5
:10414000BFD098F80004454607EB8000416855A0B1
:10415000FFF7D4FC95F8000407EB80000079800796
:1041600001D055A055E028211820FDF733F900248F
:1041700015E0A10201EB00403D494A466031FFF7DE
:10418000A3FB51483A4900EB84204A466031FDF7D1
:1041900043F9611C4DA0FFF7B1FC641CE4B295F833
:1041A000000407EB80014968B4EB912FE1D3C1B261
:1041B00007EB810149688A0521D0A20202EB004089
:1041C000C1F309022A496031FFF77EFB95F800042C
:1041D000274907EB800060318088C0F309023A4824
:1041E00000EB8420FDF718F995F80004611C07EB3B
:1041F00080008088C0F309023BA0FFF77FFC95F8A0
:10420000000400287FF45DAFC7F800B0FCF7ACF9FC
:1042100040A0FFF773FC706820F00100706050E769
:104220003C00002068110020A0120020B0110020E6
:10423000626567696E20636F6E6E6563742E2E2EE5
:104240000D0A0000636F6E6E65637420737563639F
:10425000657373210D0A0000AC0C0020636F6E6E55
:10426000656374206661696C21200D0A00000000FE
:104270003C08002000000020000C014072657365BE
:1042800074206661696C0D0A210000007265736517
:104290007420737563636573730D0A210000000059
:1042A0004300000053697A65203A20256420427952
:1042B0007465200D0A00000053697A65204572720A
:1042C0006F72EFBC810D0A00006000087472616EAD
:1042D000736C6174652025642064617461706F6320
:1042E0006B65740D0A0000007472616E736C61740A
:1042F000652025642064617461706F636B65742050
:1043000073697A65203A20256420627974650D0A04
:104310000000000053554343455353202100000043
:10432000010202030405060708090A0B0C0D0E0F13
:104330001010000000000000000001020304060746
:104340000809000000000102030400404040404012
:104350004040404041414141414040404040404058
:104360004040404040404040404040050202020280
:104370000202020202020202020202202020202087
:10438000202020202002020202020202909090903F
:10439000909010101010101010101010101010101D
:1043A0001010101010100202020202028888888881
:1043B000888808080808080808080808080808087D
:1043C0000808080808080202020240004B430008DF
:1043D000F04300080000002028000000903B000887
:1043E0001844000828000020781A0000A03B0008AC
:1043F00000000000000000000100000010000000AC
:104400000000000000127A00000000000000000020
:084410000000000000000000A4
:04000005080000ED02
:00000001FF
